:020000040800F2
:10000000A00400209D0100089711000819110008A4
:1000100095110008A90200082D1800080000000032
:100020000000000000000000000000009B1100081C
:10003000AB02000800000000991100089D110008A3
:10004000B7010008B7010008B7010008B7010008B0
:10005000B7010008B7010008B7010008B7010008A0
:10006000B7010008B7010008B7010008B701000890
:10007000B7010008B7010008B7010008B701000880
:10008000B7010008B7010008B7010008B701000870
:10009000B7010008B7010008B7010008B701000860
:1000A000B7010008B7010008B7010008B701000850
:1000B00079120008B7010008B7010008B70100086D
:1000C000B7010008B7010008B7010008B701000830
:1000D000B7010008B7010008B7010008B701000820
:1000E000B7010008B7010008B7010008B701000810
:1000F000B7010008B7010008B7010008B701000800
:10010000B7010008B7010008B7010008B7010008EF
:10011000B7010008B7010008B7010008B7010008DF
:10012000B7010008B7010008B7010008B7010008CF
:10013000B7010008B7010008B7010008B7010008BF
:10014000B7010008B7010008B7010008B7010008AF
:10015000B7010008B7010008B7010008B70100089F
:10016000B7010008B7010008B7010008B70100088F
:10017000B7010008B7010008B7010008000000003F
:10018000B7010008B7010008DFF80CD000F07AF8DA
:1001900000480047B5180008A00400200648804722
:1001A00006480047FEE7FEE7FEE7FEE7FEE7FEE75C
:1001B000FEE7FEE7FEE7FEE72512000889010008DA
:1001C0002DE9F05F0546002092469B46884606468C
:1001D000814640241BE0284641464746224600F01F
:1001E00041F853465A46C01A914110D31146184659
:1001F000224600F028F82D1A67EB01084F462246E8
:100200000120002100F01FF817EB00094E41201ECD
:10021000A4F10104DFDC484631462A464346BDE8E6
:10022000F09FD2B201E000F8012B491EFBD27047CB
:100230000022F6E710B513460A4604461946FFF7B2
:10024000F0FF204610BD202A04DB203A00FA02F11C
:10025000002070479140C2F1200320FA03F31943B4
:1002600090407047202A04DB203A21FA02F0002156
:10027000704721FA02F3D040C2F1200291400843B6
:1002800019467047064C074D06E0E06840F0010350
:1002900094E8070098471034AC42F6D3FFF778FF94
:1002A0006419000884190008FEE7704770B5044619
:1002B00000F0ECF80546601C02D0044800780444C5
:1002C00000F0E4F8401BA042FAD370BD0C000020FF
:1002D0002DE9F84FDFF87CB100224FF001084FF014
:1002E000030A4FF00F090BF1040E00BF0B6808FA68
:1002F00002F42340A3426ED14D68022D01D0122D8D
:100300000ED1D50800EB850CDCF820505607F70E0F
:1003100009FA07F6B5430E69BE402E43CCF82060BB
:10032000066855000F790AFA05FC07F0030726EA6C
:100330000C06AF40374307604E68012E05D0022EF1
:1003400003D0112E01D0122E0ED18668CF6826EA76
:100350000C06AF40374387604668A6430C79C4F368
:100360000014944034434460C6688C6826EA0C0646
:10037000AC403443C4604C68E40065D5364C256815
:1003800045F480452560246822F0030504F4804488
:100390000094324C2E19D6F8084895072F0F09FA09
:1003A00007F5AC432E4DA84201D1002524E02D4D88
:1003B000A84201D101251FE02B4DA84201D1022501
:1003C0001AE02A4DA84201D1032515E0284DA84284
:1003D00002D1042510E037E0264DA84201D10525C1
:1003E0000AE0254DA84201D1062505E0234DA8428B
:1003F00001D1072500E00825BD402543C6F808586F
:10040000DBF800405D464E689C43F60300D51C4374
:100410002C60DEF8004075464E689C43B60300D55C
:100420001C432C600B4D08352C684E689C43F6022B
:1004300000D51C432C60074D0C352C684E689C433E
:10044000B60200D51C432C60521C102AFFF44EAF9C
:10045000BDE8F88F003C01404438024000300140C4
:10046000000002400004024000080240000C02406C
:10047000001002400014024000180240001C02401C
:100480000AB1816170470904FBE7000001488068F8
:10049000704700000C000020024881680278114477
:1004A000816070470C0000200B4810B5016841F4D2
:1004B00000710160016841F480610160016841F4EC
:1004C00080710160032000F06FF8002000F006F852
:1004D00000F024F8002010BD003C024070B50D4D26
:1004E00004464FF47A712878B1FBF0F00A490968A4
:1004F000B1FBF0F000F0E2FA48B9102C07D200226C
:100500002146501E00F030F800206C6070BD0120C4
:1005100070BD00000C000020180000200A4808B53B
:10052000016841F480410160006800F4804000905F
:100530000548001F016841F080510160006800F02B
:100540008050009008BD000044380240002809DBBC
:1005500000F01F02012191404009800000F1E020DD
:10056000C0F8001170470000F0B40E4B1B680C4639
:10057000C3F30223C3F10705042D00D90425191D77
:10058000072901D2002300E0DB1E012606FA05F14F
:10059000491E214099409E40761E16403143F0BCD2
:1005A00001F04EB90CED00E0064900F007020868C2
:1005B0004FF6FF03184040EA0220034A1043086048
:1005C000704700000CED00E00000FA052DE9F0474F
:1005D0000E46050065D0DFF81481D8F80000F7B2A8
:1005E00000F00F00B04207D288F80070D8F8000081
:1005F00000F00F00B04254D128683D4C810712D55D
:10060000400703D5206840F4E050206028780007B8
:1006100003D5206840F4604020602068A96820F07D
:10062000F000084320602878C0072DD03049686862
:100630000839012812D0022813D0032811D00968E4
:10064000890700292DDA216821F003010143216087
:10065000FFF71CFF814641F2883A0EE009688903E2
:10066000EFE709688901ECE7FFF710FFA0EB09014C
:10067000514502D90320BDE8F0872068696800F081
:100680000C00B0EB810FEFD1D8F80010404601F01C
:100690000F01B14207D90770006800F00F00B042A7
:1006A00001D00120E7E72878400705D52068E968F0
:1006B00020F4E050084320602878000706D5206821
:1006C000296920F4604040EAC100206000F036F85B
:1006D0002168084AC1F30311515CC840064908600B
:1006E0000020FFF7FBFE0020C5E70000003C0240B1
:1006F000083802404C190008180000200448054939
:1007000000680968044AC1F38221515CC8407047FF
:1007100018000020083802405C1900080448054908
:1007200000680968044AC1F34231515CC84070470F
:1007300018000020083802405C190008154810B560
:10074000006810F00C02144813D01449042A0FD08A
:10075000082A0ED10F4C241F2268236802F03F02A2
:100760005B0207D52068C0F38810A0FB010106E0FA
:10077000084610BD2168C1F38811A1FB00010023C8
:10078000FFF71EFD2168C1F30141491C4900B0FB80
:10079000F1F010BD083802400024F40040787D01DB
:1007A0002DE9F84F050076D02878DFF8F8B2BE4C76
:1007B000C00749D0DBF800105846C1F38101012978
:1007C00008D00068C0F3810002280AD1201D00680B
:1007D000400206D52068800336D568680028E2D03C
:1007E00032E06868B0F5803F10D0B0F5A02F2068E7
:1007F00010D020F480302060206820F48020206019
:100800006868A0B1FFF742FE06460CE0206840F49D
:100810008030F4E740F480202060F7E7FFF736FEF1
:10082000801B642873D820688003F7D50CE0FFF79D
:100830002DFE064605E000BFFFF728FE801B64285A
:10084000F0D820688003F7D42878DFF8608280072A
:100850004FF000093ED5DBF80010584611F00C0FA0
:1008600009D00068C0F3810002280BD18D48001F19
:100870000068400206D42068800715D5E868012882
:1008800009D111E0E868B8B10120C8F80000FFF70D
:10089000FDFD064605E002E1FFF7F8FD801B02289A
:1008A000C0D820688007F7D52068296920F0F800B3
:1008B00040EAC10020600DE0C8F80090FFF7E6FDB7
:1008C000064604E0FFF7E2FD801B02281FD82068DF
:1008D0008007F7D42878000722D5724E74486969DA
:1008E0006C3671B101210160FFF7D0FD074604E0CD
:1008F000FFF7CCFDC01B022809D830688007F7D568
:100900000EE0C0F80090FFF7C1FD074605E083E068
:10091000FFF7BCFDC01B02287ED830688007F7D4E3
:100920002878400768D5DFF87CA100270AF1380A4B
:10093000DAF80000C0000BD4DAF8001041F0805162
:10094000CAF80010DAF80000012700F0805000908B
:10095000584E3068C00510D4306840F48070306064
:10096000FFF794FD009005E0FFF790FD0099401A15
:10097000022851D83068C005F6D54A4EA8686836B6
:1009800001280FD00528306810D020F00100306019
:10099000306820F004003060A868B8B1FFF776FD39
:1009A00000900FE0306840F00100F4E740F00400F0
:1009B0003060F7E7FFF76AFD0099411A41F288308D
:1009C000814264D830688007F4D50EE0FFF75EFD01
:1009D000009007E0FFF75AFD0099411A41F2883074
:1009E000814254D830688007F4D42FB1DAF800106F
:1009F00021F08051CAF80010A869C0B3DBF80010DC
:100A0000C1F3810102294AD00228484607D0C8F81C
:100A10006000FFF73BFD00E039E005463AE047465D
:100A2000C8F86000FFF732FD064604E0FFF72EFD30
:100A3000801B02282BD820688001F7D4D5E9070154
:100A40000843A96A1C4A490802EB01416A6A41EA63
:100A50008211084395F82C1040EA01611148001FEB
:100A6000016001203866FFF711FD054605E014E03E
:100A7000FFF70CFD401B022809D820688001F7D53C
:100A80000BE000BFFFF702FD401B022802D9032044
:100A9000BDE8F88F20688001F4D40020F8E7012039
:100AA000F6E70000083802400038024000004742E4
:100AB000800E4742007000400000FFFF10B5401E4E
:100AC000B0F1807F01D3012010BD4FF0E0246061C0
:100AD0000F21601700F0B4FE0020A0610720206104
:100AE000002010BD7047704770B590F83C20012A77
:100AF00019D0012400F83C4F0222427050F83C3CCF
:100B00005A689D6822F070060A684968324325F0E9
:100B1000800529435A6050F83C2C916044700021B4
:100B20000170084670BD022070BD10B5040003D0EE
:100B300094F83D0010B107E0012010BD002084F8BA
:100B40003C00204600F00CF8022084F83D00211DF6
:100B5000206800F097FB012084F83D00002010BDC4
:100B600010B586B0044614216846FFF761FB206883
:100B7000B0F1804F27D115480021026842F00102F0
:100B80000260006800F0010005901048103802680B
:100B900042F001020260006800F001000590202090
:100BA00000900220CDE901010390012004906946E4
:100BB0000748FFF78DFB002211461C20FFF7D4FCED
:100BC0001C20FFF7C3FC06B010BD000040380240F7
:100BD0000000024070B5044690F83C00012817D090
:100BE000012584F83C50022084F83D00206882688A
:100BF00022F0770222F47F4282600868502830D0C9
:100C00000DDC20284DD005DC98B310283BD148E0FE
:100C1000022070BD302844D0402834D139E060280B
:100C200028D0702806D0B0F5805F2CD0B0F5005FDA
:100C300029D10AE0CB68D1E90121206800F093FBBB
:100C40002068816841F0770109E0CB68D1E9012192
:100C5000206800F088FB2068816841F48041816051
:100C600011E0CA684968206800F08FFB50212068B5
:100C700007E016E0CA684968206800F0D7FB6021E9
:100C8000206800F07AFB84F83D50002084F83C0096
:100C900070BDCA684968206800F077FB4021206871
:100CA000EFE7226801461046EBE70000074810B561
:100CB0000078012808D10021054800F0AFF9054966
:100CC000086005490120087010BD000000000020E8
:100CD0002000002004000020010000202DE9F04148
:100CE000044690F83C000D4601283DD0012684F8CA
:100CF0003C60022084F83D00AAB3042A46D0206854
:100D0000082A55D0D5E90027E968036A23F48053FF
:100D10000362D0F81CC0036A2CF4407C4CEA07271D
:100D20004FF6FF7C27F470470CEA013139434FF44A
:100D3000204723F4204307EA02321A43C1610262CA
:100D40002068C16921F44061C1612068C169AA6855
:100D500041EA0221C0F81C1084F83D60002084F8AC
:100D60003C00BDE8F08101E00220FAE7D5E900127D
:100D7000EB68206800F01AFB2068816921F00C0103
:100D8000816120688169AA6811430FE0D5E90012EA
:100D9000EB68206800F05CFB2068816921F4406109
:100DA000816120688169AA6841EA02218161D3E7F3
:100DB000D5E9002C2F7B016A21F480710162C169A1
:100DC000036A21F0030141EA0C0121F0F00C39071C
:100DD0004FF420674CEA116123F4206307EA0222F2
:100DE0001A43C16102622068C16921F00C01C1612E
:100DF0002068C169AA681143ACE710B5040003D0AC
:100E000094F83D0010B107E0012010BD002084F8E7
:100E10003C00204600F00CF8022084F83D00211D23
:100E2000206800F02FFA012084F83D00002010BD5A
:100E3000704710B50268044631B1042908D008296A
:100E40001AD00C2908D11BE0D06840F0020002E063
:100E5000D06840F00400D0600122206800F076FAEB
:100E60002068816801F00701062903D0016841F07C
:100E700001010160002010BDD06840F00800EAE7E1
:100E8000D06840F01000E6E770B5044600680169DC
:100E90004FF00005C943890715D4C168C9438907C4
:100EA00011D4E91E01610120207720688069800744
:100EB000204602D0FFF7FAFE04E000F098F8204642
:100EC00000F096F8257720680169C943490717D4CF
:100ED000C168C943490713D46FF0040101610220BE
:100EE00020772068806910F4407F204602D0FFF709
:100EF000DDFE04E000F07BF8204600F079F825776D
:100F000020680169C943090716D4C168C9430907A4
:100F100012D46FF008010161042020772068C069B5
:100F20008007204602D0FFF7C1FE04E000F05FF822
:100F3000204600F05DF8257720680169C943C9069D
:100F400017D4C168C943C90613D46FF010010161F9
:100F5000082020772068C06910F4407F204602D026
:100F6000FFF7A4FE04E000F042F8204600F040F84D
:100F7000257720680169C943C90708D1C168C943F9
:100F8000C90704D1891E0161204600F033F82068AA
:100F90000169C943090609D4C168C943090605D4D2
:100FA0006FF0800101612046FFF79CFD2068016918
:100FB000C943490609D4C168C943490605D46FF03D
:100FC00040010161204600F03EF820680169C943F4
:100FD00089060BD4C168C943890607D46FF0200184
:100FE00001612046BDE87040FFF77DBD70BD7047D0
:100FF0007047000005480078012805D105490448DC
:1010000008600549012008707047000000000020BA
:1010100000CA9A3B04000020010000200246002084
:1010200041B1042909D008290AD00C2901D110683E
:10103000006C70471068406B70471068806B704799
:101040001068C06B7047704770B5040004D094F806
:101050003900002510B106E0012070BD84F8385039
:10106000204600F023F8242084F839002068C16865
:1010700021F40051C160204600F082FA2068016925
:1010800021F4904101612068416921F02A01416108
:101090002068C16841F40051C160E563202084F8F4
:1010A000390084F83A00002070BD000010B586B009
:1010B000044614216846FFF7BBF8144920688842AB
:1010C00021D11348016841F010010160006800F06F
:1010D000100005900E481438016841F001010160CC
:1010E0000068694600F0010005904FF4C060009070
:1010F0000220019001200290032003900720049019
:101100000448FFF7E5F806B010BD000000100140EC
:101110004438024000000240FEE7000010B58AB0EB
:1011200000241A480494059406940794089409949A
:101130000094019402944FF08041039401600821CF
:10114000C0E901141249C0E9031480218161FFF74D
:10115000ECFC4FF48050049004A90C48FFF73AFDD2
:101160000A48FFF74AFE089408A908480994FFF7BF
:10117000BBFC0120CDE900400220CDE90240002265
:1011800069460248FFF7AAFD0AB010BD2000002002
:1011900000CA9A3BFEE7704770477047FFF77CB97B
:1011A00030B593B030216846FFF742F814210CA8FF
:1011B000FFF73EF819480025016841F080510160B1
:1011C000006800F0805011901548016841F480419A
:1011D00001600068022400F4804011900120039017
:1011E0001020009406940490CDE907504FF4A870A5
:1011F000CDE9090404200B906846FFF7D1FA0F20CF
:10120000CDE90C0480200E904001CDE90F050221AC
:101210000CA8FFF7DBF913B030BD000040380240E6
:10122000007000401048016841F4700101600F48EF
:10123000016841F0010101600C4A0021083211608F
:1012400002680B4B1A400260031D0A4A1A600268CA
:1012500022F48022026005480C30016002495806E1
:10126000803908607047000088ED00E000380240D7
:10127000FFFFF6FE103000240148FFF705BE000016
:1012800020000020F0B50268254C264D264E274F41
:10129000274B4FF0804CA04209D0604507D0A842B0
:1012A00005D0B04203D0B84201D0984204D122F018
:1012B000700E4A6842EA0E02A0421BD0604519D067
:1012C000A84217D0B04215D0B84213D0984211D0DE
:1012D000184DA8420ED0184DA8420BD0174DA84269
:1012E00008D0174DA84205D0164DA84202D0164D81
:1012F000A84203D122F44075CA682A434D6922F0FE
:1013000080022A4302608A68C2620A688262A0423E
:1013100001D0984201D10969016301214161F0BD09
:10132000000001400004004000080040000C0040A4
:1013300000040140004001400044014000480140D9
:1013400000180040001C00400020004010B501F0D3
:101350001F030121046A99408C430462016A9A4088
:101360001143016210BD10B5846842EA032224F4DF
:101370007F440A432243826010BD826822F07002DB
:101380000A4342F007018160704710B5036A046A9E
:1013900024F001040462846924F0F00444EA021495
:1013A00023F00A020A438461026210BD70B5046A28
:1013B00024F0010404628469056A154EB04214D019
:1013C000B0F1804F11D0134EB0420ED0124EB04249
:1013D0000BD0124EB04208D0114EB04205D0114E83
:1013E000B04202D0104EB04203D124F003041443A3
:1013F00001E044F001041A0724F0F00444EA126208
:1014000025F00A0301F00A0119438261016270BDEF
:10141000000001400004004000080040000C0040B3
:1014200000040140004001400018004010B5036A6C
:1014300023F0100303628369046A23F4704343EAD0
:10144000023224F0A00343EA01118261016210BD5F
:1014500030B5046A24F0100404628469056A24F437
:10146000407444EA022222F470444FF6FF7202EA0A
:1014700003322243A02425F0A00304EA01111943FA
:101480008261016230BD000010B50B4CA17869B1DA
:1014900000F014F868B1A178491EC9B2A170A26821
:1014A000904200D9A06021B9A06810BDA0700020B2
:1014B000A060002010BD00000000002010B5094C05
:1014C000207818B16078012806D003E000F00CF80D
:1014D00001202070002010BD002060702070606826
:1014E00010BD00000000002070B586B0202001244F
:1014F00002258DE8310003200E4E039069463046E8
:10150000FEF7E6FE002220213046FEF7B9FF052057
:10151000FEF7CCFE0849601F0A68106109680020C8
:1015200048620494CDE9015069463046FEF7D0FE8A
:1015300006B070BD000002402000002070B5010020
:101540000E4C4FF000054FF0030002D000210620A2
:10155000E170FFF799FF78B140F61B41A0F22D1022
:101560008842E07804D200B901250320E07000E051
:1015700010B1C0B2401EE070284670BD00000020CF
:101580002DE9F041044600680169E26821F4405108
:10159000114301612169A068E2690843616911434F
:1015A00022680843D16849F20C6399430143D16032
:1015B00020684169A26921F4407111434161E269E7
:1015C0006425B2F5004F9748974922684FF03208DA
:1015D0003FD08A4201D082427CD1FFF79FF800EBD6
:1015E000C00101EB001061688900B0FBF1F6FFF764
:1015F00095F800EBC00101EB001061688900B0FBB9
:10160000F1F0B0FBF5F06FF01801484306EB8001F4
:1016100008EB0110B0FBF5F000F0F006FFF77EF8E4
:1016200000EBC00101EB001061688900B0FBF1F034
:10163000B0FBF5F006EB0016FFF770F800EBC00109
:1016400001EB001061688900B0FBF1F7FFF766F865
:10165000D2E08A4201D082423DD1FFF75FF800EB31
:10166000C00101EB001061684900B0FBF1F0B0FB74
:10167000F5F00601FFF752F800EBC00101EB001096
:1016800061684900B0FBF1F7FFF748F800EBC001D3
:1016900001EB001061684900B0FBF1F0B0FBF5F020
:1016A0006FF01801484307EB800108EBC100B0FB65
:1016B000F5F000F0F80006EB4006FFF72FF800EB1E
:1016C000C00101EB001061684900B0FBF1F7FFF7C2
:1016D00025F83CE055E0FFF711F800EBC00101EB05
:1016E000001061684900B0FBF1F0B0FBF5F00601B5
:1016F000FFF704F800EBC00101EB0010616849003E
:10170000B0FBF1F7FEF7FAFF00EBC00101EB0010B0
:1017100061684900B0FBF1F0B0FBF5F06FF0180123
:10172000484307EB800108EBC100B0FBF5F000F087
:10173000F80006EB4006FEF7E1FF00EBC00101EB0D
:10174000001061684900B0FBF1F7FEF7D7FF00EB2E
:10175000C00101EB001061684900B0FBF1F0B0FB83
:10176000F5F06FF01801484307EB800108EBC1006A
:10177000B0FBF5F000F00700216830448860BDE858
:10178000F081FEF7BBFF00EBC00101EB00106168C8
:101790008900B0FBF1F6FEF7B1FF00EBC00101EBF1
:1017A000001061688900B0FBF1F0B0FBF5F06FF05C
:1017B0001801484306EB800108EB0110B0FBF5F07F
:1017C00000F0F006FEF79AFF00EBC00101EB0010FD
:1017D00061688900B0FBF1F0B0FBF5F006EB001694
:1017E000FEF78CFF00EBC00101EB0010616889007F
:1017F000B0FBF1F7FEF782FF00EBC00101EB001038
:1018000061688900B0FBF1F0B0FBF5F06FF01801F2
:10181000484307EB800108EB0110B0FBF5F000F046
:101820000F00A9E70014014000100140FEE700008E
:10183000014A024900F023B8A11800081C0000204A
:101840000907090E002804DB00F1E02080F80014ED
:10185000704700F00F0000F1E02080F8141D704781
:1018600002E008C8121F08C1002AFAD17047704769
:10187000002001E001C1121F002AFBD170472DE9B1
:10188000F04116460F460446002503E03946B047AE
:10189000641C6D1C20780028F8D12846BDE8F08132
:1018A00003490A685206FCD5C2B24A60704700007C
:1018B0000010014008B5FEF7F7FDFFF771FC1E4868
:1018C0000024016841F004010160016801F0040195
:1018D0000091016841F080010160016801F0800120
:1018E0000091016841F001010160006800F0010011
:1018F0000090FFF713FC1248104901604FF4E131EA
:10190000C0E901140C21C460C0E904418461C461D0
:10191000FFF79AFB0A4800214038FFF78AFA0120B6
:10192000FFF70CFE0028FAD006A0FFF781FF0A207F
:10193000FEF7BCFCF3E70000303802400010014025
:1019400060000020B0B4CFC20D0A0000000000000B
:10195000000000000102030406070809000000005F
:101960000102030484190008000000202000000088
:1019700060180008A419000820000020800400005E
:1019800070180008000000000000000000000000C7
:101990000100000010000000000000000024F4001E
:0419A0000000000043
:040000050800018965
:00000001FF
